:100000000C9424010C9445010C9445010C94450179
:100010000C9445010C9445010C9445010C94450148
:100020000C9445010C9445010C9445010C94450138
:100030000C9445010C9445010C9445010C94450128
:100040000C9445010C9445010C9445010C94450118
:100050000C9445010C9445010C9445010C945A02F2
:100060000C9445010C9445010C9445010C944501F8
:100070000C9445010C9445010C9445010C944501E8
:100080000C9445010C9445010C9445010C944501D8
:100090000C9445010C9445010C9445010C944501C8
:1000A0000C9445010C9445010C9445010C944501B8
:1000B0000C9445010C9445010C9445010C944501A8
:1000C0000C9445010C9445010C9445010C94450198
:1000D0000C9445010C9445010C9445010C94450188
:1000E0000C9445010C94C9010C94BF010C94770148
:1000F0000C94A7010C947C010C9496010C94BB0108
:100100000C949D010C9492010C94B1010C94B501D6
:100110000C948E010C94AD010C94CD010C94A301B0
:100120000C94C3010C949A010000200023002600C7
:1001300029002C002F0032000001000003010601FD
:10014000090100002100240027002A002D003000B2
:10015000330001010000040107010A010000220030
:10016000250028002B002E00310034000201000081
:10017000050108010B010505050507050808080824
:10018000020202020A0A080804040404010101012F
:10019000010101010303030303030303040707072A
:1001A0000C0C0C0C0C0C0C0C0202020206060606CF
:1001B000060606060B0B0B0B0B0B0B0B010210209C
:1001C000200808102040102040800201020108048D
:1001D0000201010204081020408080402010080421
:1001E000020180040201804020100804020108047A
:1001F00002010102040810204080010204081020BE
:10020000408000000A0B02090C0D0E0807030401D0
:1002100000000000000000000000000000000000DE
:1002200000000000000000000000000000001211AB
:1002300010000000000000000000000000000000AE
:10024000000000000000000011241FBECFEFD1E22B
:10025000DEBFCDBF00E00CBF12E0A0E0B2E0EAE1FB
:10026000FCE000E00BBF02C007900D92A030B10788
:10027000D9F722E0A0E0B2E001C01D92A431B2079C
:10028000E1F70E94E9020C940B060C940000282F61
:1002900030E0F901EE5FFD4F9491F901E454FE4F17
:1002A00044912A583E4FF9012491222309F435C084
:1002B000992311F191509231F8F4E92FF0E0882759
:1002C000EB59FE4F8F4F0C94FC0596019A01770174
:1002D0008E0192017C019D01A301A701AD01B10135
:1002E000B501BB01BF017C01C301C901CD018091F2
:1002F00080008F7780938000E22FF0E0EE0FFF1FE9
:10030000E45AFE4FA591B4918FB7F894EC91611126
:1003100048C040954E234C938FBF08958091800034
:100320008F7DE8CF80918000877FE4CF84B58F7781
:1003300084BDE2CF84B58F7DFBCF8091B0008F77F5
:100340008093B000D9CF8091B0008F7DF9CF80919C
:1003500090008F7780939000CFCF809190008F7D19
:10036000F9CF80919000877FF5CF8091A0008F77A3
:100370008093A000C1CF8091A0008F7DF9CF8091A4
:10038000A000877FF5CF809120018F778093200197
:10039000B3CF809120018F7DF9CF80912001877F9D
:1003A000F5CF4E2BB8CFCF93DF9390E0FC01E45410
:1003B000FE4F24918A589E4FFC0184918823D1F0EE
:1003C00090E0880F991FFC01EE5BFE4FA591B49160
:1003D000FC01E45AFE4FC591D49161110EC09FB744
:1003E000F8948C91E22FE0958E238C932881E22360
:1003F000E8839FBFDF91CF9108958FB7F894EC9178
:10040000E22BEC938FBFF6CF90917B00977F909378
:100410007B008653806480937C0080917A008064A6
:1004200080937A0080917A0086FDFCCF80917800DD
:100430009091790008953FB7F894809110029091BF
:100440001102A0911202B091130226B5A89B05C01B
:100450002F3F19F00196A11DB11D3FBFBA2FA92F43
:10046000982F8827BC01CD01620F711D811D911D40
:1004700042E0660F771F881F991F4A95D1F70895AC
:10048000FC0120812EBD9B012150310941F0518199
:100490000DB407FEFDCF4EB55EBD4193F5CF615063
:1004A0007109860F971F0DB407FEFDCF2EB5FC0115
:1004B000208308951F920F920FB60F9211242F934D
:1004C0003F938F939F93AF93BF9380910C02909132
:1004D0000D02A0910E02B0910F0230910B0223E0A9
:1004E000230F2D3758F50196A11DB11D20930B0246
:1004F00080930C0290930D02A0930E02B0930F0212
:100500008091100290911102A0911202B0911302F9
:100510000196A11DB11D8093100290931102A0932A
:100520001202B0931302BF91AF919F918F913F91AF
:100530002F910F900FBE0F901F90189526E8230F54
:100540000296A11DB11DD2CFCF92DF92EF92FF9202
:100550000F931F93E82FF92F05C0015011092109AE
:10056000310961F1908196239417B9F305C00150C8
:1005700011092109310911F1908196239413F7CFC4
:10058000C12CD12CE12CF12C0AC08FEFC81AD80A4B
:10059000E80AF80A0C151D052E053F0579F0808143
:1005A0008623841791F36C2D7D2D8E2D9F2D1F9109
:1005B0000F91FF90EF90DF90CF90089560E070E092
:1005C00080E090E01F910F91FF90EF90DF90CF902F
:1005D0000895789484B5826084BD84B5816084BDBB
:1005E00085B5826085BD85B5816085BD80916E00D1
:1005F000816080936E001092810080918100826002
:10060000809381008091810081608093810080913E
:1006100080008160809380008091B100846080932D
:10062000B1008091B00081608093B0008091910012
:10063000826080939100809191008160809391000D
:10064000809190008160809390008091A1008260F1
:100650008093A1008091A10081608093A10080918E
:10066000A00081608093A00080912101826080932E
:1006700021018091210181608093210180912001DD
:1006800081608093200180917A00846080937A0059
:1006900080917A00826080937A0080917A008160F4
:1006A00080937A0080917A00806880937A0010921B
:1006B000C10061E085E30E94D301CFB7F894809137
:1006C0000002811127C0EBEAF1E08491E1EFF1E053
:1006D0009491E82FF0E0EE0FFF1FEE5BFE4FA59127
:1006E000B491EC91E92321F461E085E30E94470194
:1006F00061E085E30E94D3018CB580618CBD8CB52F
:1007000080648CBD61E084E30E94D30161E083E3F7
:100710000E94D301809100028F5F80930002CFBFBF
:1007200060E086E30E94D30161E08AE00E94D30189
:1007300060E089E00E94D30160E087E30E94D3017A
:1007400044244A9423E0522E612C712C33E2232E50
:10075000312CC0E0D0E086E30E94040228EC30E0B7
:10076000DC010E940406A30192010E947B04CA01DD
:10077000B9010E9403052BE938E349EB5CE30E94D1
:1007800067056093070270930802809309029093B3
:100790000A0287E30E9404022AE430E0DC010E949E
:1007A0000406A30192010E947B04CA01B9010E94C0
:1007B000030520E030E44CE955E40E9467052CEA8B
:1007C00035EC47E257E30E9467056093030270939C
:1007D0000402809305029093060260E08AE00E9482
:1007E000470183E090E00197F1F761E08AE00E9421
:1007F0004701C1010197F1F760E08AE00E944701DB
:10080000E5ECF1E06491EFE7F1E08491E82FF0E0AE
:10081000EE0FFF1FE85DFE4F8591949100E412E416
:100820002FE030E0462F0E94A4026115710581057A
:10083000910529F06F5F7F4F8F4F9F4F9F700E94F0
:10084000030526E933E44BE05DE30E94670520E001
:1008500030E040E05FE30E9467050E94CB047093A4
:10086000020260930102F0E5FCBD81E08DBD60E015
:1008700085E30E94470162E070E081E092E00E941F
:10088000400264E070E083E092E00E94400264E095
:1008900070E087E092E00E94400261E085E30E9400
:1008A00047010E941B024B015C0184E6C82ED12C3B
:1008B000E12CF12C0E941B02681979098A099B0915
:1008C000683E734081059105A8F321E0C21AD10862
:1008D000E108F10888EE880E83E0981EA11CB11C87
:1008E000C114D104E104F10429F7209709F433CFAE
:1008F0000E94000030CF052E97FB1EF400940E944A
:10090000920457FD07D00E949A0407FC03D04EF4CE
:100910000C94920450954095309521953F4F4F4F40
:100920005F4F089590958095709561957F4F8F4F9B
:100930009F4F0895A1E21A2EAA1BBB1BFD010DC0FB
:10094000AA1FBB1FEE1FFF1FA217B307E407F5077F
:1009500020F0A21BB30BE40BF50B661F771F881F5B
:10096000991F1A9469F760957095809590959B01F1
:10097000AC01BD01CF010895A29FB001B39FC0019A
:10098000A39F700D811D1124911DB29F700D811DBB
:100990001124911D08950E94D2046894B1110C9401
:1009A000610508950E94460588F09F5798F0B92F79
:1009B0009927B751B0F0E1F0660F771F881F991F94
:1009C0001AF0BA95C9F714C0B13091F00E946005D1
:1009D000B1E008950C946005672F782F8827B85FE1
:1009E00039F0B93FCCF3869577956795B395D9F7EC
:1009F0003EF490958095709561957F4F8F4F9F4FF6
:100A00000895E89409C097FB3EF490958095709501
:100A100061957F4F8F4F9F4F9923A9F0F92F96E94A
:100A2000BB279395F695879577956795B795F111BF
:100A3000F8CFFAF4BB0F11F460FF1BC06F5F7F4F5C
:100A40008F4F9F4F16C0882311F096E911C077236E
:100A500021F09EE8872F762F05C0662371F096E877
:100A6000862F70E060E02AF09A95660F771F881F46
:100A7000DAF7880F9695879597F9089557FD90585E
:100A8000440F551F59F05F3F71F04795880F97FB52
:100A9000991F61F09F3F79F087950895121613060C
:100AA0001406551FF2CF4695F1DF08C0161617063B
:100AB0001806991FF1CF8695710561050894089570
:100AC000E894BB2766277727CB0197F908950E9402
:100AD0007A050C94EB050E94DD0538F00E94E405D0
:100AE00020F0952311F00C94D4050C94DA05112410
:100AF0000C9461050E943E0570F3959FC1F3950F1C
:100B000050E0551F629FF001729FBB27F00DB11D91
:100B1000639FAA27F00DB11DAA1F649F6627B00D21
:100B2000A11D661F829F2227B00DA11D621F739F0A
:100B3000B00DA11D621F839FA00D611D221F749F18
:100B40003327A00D611D231F849F600D211D822F5F
:100B5000762F6A2F11249F5750409AF0F1F0882386
:100B60004AF0EE0FFF1FBB1F661F771F881F9150B3
:100B70005040A9F79E3F510580F00C94D4050C9489
:100B800061055F3FE4F3983ED4F3869577956795CA
:100B9000B795F795E7959F5FC1F7FE2B880F911DDD
:100BA0009695879597F9089597F99F6780E870E083
:100BB00060E008959FEF80EC089500240A941616D3
:100BC000170618060906089500240A94121613063B
:100BD000140605060895092E0394000C11F48823C9
:100BE00052F0BB0F40F4BF2B11F460FF04C06F5FE5
:100BF0007F4F8F4F9F4F0895EE0FFF1F881F8BBFB2
:100C00000790F691E02D19940E94BC04B7FF089557
:0A0C1000821B930B0895F894FFCFA8
:00000001FF
