:100000000C94AB010C94DC010C94DC010C94DC012D
:100010000C94DC010C94DC010C94DC010C94DC01EC
:100020000C94DC010C94DC010C94DC010C94DC01DC
:100030000C94DC010C94DC010C94DC010C94DC01CC
:100040000C94DC010C94DC010C94DC010C94DC01BC
:100050000C94DC010C94DC010C94DC010C94E9059B
:100060000C94DC010C945D060C9433060C94DC01BA
:100070000C94DC010C94DC010C94DC010C94DC018C
:100080000C94DC010C94DC010C94DC010C94DC017C
:100090000C94DC010C94DC010C94DC010C94DC016C
:1000A0000C94DC010C94DC010C94DC010C94DC015C
:1000B0000C94DC010C94DC010C94DC010C94DC014C
:1000C0000C94DC010C94DC010C94DC010C94DC013C
:1000D0000C94DC010C94DC010C94DC010C94DC012C
:1000E0000C94DC010C9410030C9444020C94ED026B
:1000F0000C9448020C943E020C94F4030C943402C9
:100100000C94FC020C9464020C943A020C941302BA
:100110000C9452020C94E3050C944C020C941E03B4
:100120000C945A020C94F5030C9425020C9456027C
:100130000C942D020C9431020C94C0020C94A30375
:100140000C9456030C940E020C9493060C94290202
:100150000C94600200407A10F35A00A0724E180905
:100160000010A5D4E80000E87648170000E40B541E
:10017000020000CA9A3B000000E1F50500008096ED
:100180009800000040420F000000A086010000001F
:10019000102700000000E8030000000064000000D9
:1001A00000000A00000000000100000000002C76A2
:1001B000D888DC674F0823DFC1DFAE59E1B1B796BD
:1001C000E5E3E453C63AE651997696E8E6C284261A
:1001D000EB898C9B62ED407C6FFCEFBC9C9F40F2F6
:1001E000BAA56FA5F490055A2AF75C936B6CF96772
:1001F0006DC11BFCE0E40D47FEF520E6B500D0ED37
:10020000902E0300943577050080841E080000209E
:100210004E0A000000C80C333333330F986E12833C
:100220001141EF8D2114893BE65516CFFEE6DB1810
:10023000D1844B381BF77C1D901DA4BBE4242032D5
:1002400084725E228100C9F124ECA1E53D27000003
:100250002100240027002A002D0030003300010176
:100260000000040107010A01000022002500280007
:100270002B002E00310034000201000005010801AE
:100280000B0105050505070508080808020202021A
:100290000A0A080804040404010101010101010122
:1002A0000303030303030303040707070C0C0C0CED
:1002B0000C0C0C0C020202020606060606060606D6
:1002C0000B0B0B0B0B0B0B0B010210202008081063
:1002D00020401020408002010201080402010102B6
:1002E000040810204080804020100804020180048F
:1002F00002018040201008040201080402010102EA
:1003000004081020408001020408102040800000F2
:100310000A0B02090C0D0E0807030401000000007F
:1003200000000000000000000000000000000000CD
:10033000000000000000000000001211100000008A
:1003400000000000000000000000000000000000AD
:1003500000000000930611241FBECFEFD1E2DEBFE4
:10036000CDBF00E00CBF23E0A8E3B2E001C01D92C6
:10037000A530B207E1F712E0A0E0B2E0ECE4FBE167
:1003800000E00BBF02C007900D92A833B107D9F768
:1003900011E0CBEAD1E000E006C021970109802FEF
:1003A000FE010E94860BCA3AD10780E00807A9F730
:1003B0000E94DD060C94A40D0C940000282F30E060
:1003C000F901E25FFC4F9491F901E853FD4F44912C
:1003D0002E573D4FF9012491222309F435C099236A
:1003E00011F191509231F8F4E92FF0E08827E450B0
:1003F000FE4F8F4F0C94860B2D0231020E02250208
:100400002902130234023A023E02440248024C021C
:100410005202560213025A02600264028091800066
:100420008F7780938000E22FF0E0EE0FFF1FE859F6
:10043000FD4FA591B4918FB7F894EC91611148C02C
:1004400040954E234C938FBF0895809180008F7DFF
:10045000E8CF80918000877FE4CF84B58F7784BD1B
:10046000E2CF84B58F7DFBCF8091B0008F778093F2
:10047000B000D9CF8091B0008F7DF9CF80919000EE
:100480008F7780939000CFCF809190008F7DF9CFB0
:1004900080919000877FF5CF8091A0008F77809327
:1004A000A000C1CF8091A0008F7DF9CF8091A000E6
:1004B000877FF5CF809120018F7780932001B3CF84
:1004C000809120018F7DF9CF80912001877FF5CF2A
:1004D0004E2BB8CFCF93DF9390E0FC01E853FD4F54
:1004E00024918E579D4FFC0184918823D1F090E098
:1004F000880F991FFC01E25BFD4FA591B491FC01AF
:10050000E859FD4FC591D49161110EC09FB7F89481
:100510008C91E22FE0958E238C932881E223E8834F
:100520009FBFDF91CF9108958FB7F894EC91E22BA4
:10053000EC938FBFF6CF3FB7F8948091480290912B
:100540004902A0914A02B0914B0226B5A89B05C072
:100550002F3F19F00196A11DB11D3FBFBA2FA92F42
:10056000982F8827BC01CD01620F711D811D911D3F
:1005700042E0660F771F881F991F4A95D1F70895AB
:10058000AF92BF92CF92DF92EF92FF920F931F93A1
:10059000CF93DF936C017B018B01040F151FEB01DF
:1005A0005E01AE18BF08C017D10759F06991D60196
:1005B000ED91FC910190F081E02DC6011995892BF8
:1005C00079F7C501DF91CF911F910F91FF90EF90C7
:1005D000DF90CF90BF90AF900895FC01538D448D74
:1005E000252F30E0842F90E0821B930B541710F0DE
:1005F000CF96089501970895FC01918D828D9817EB
:1006000061F0A28DAE0FBF2FB11D5D968C91928DC2
:100610009F5F9F73928F90E008958FEF9FEF0895F3
:10062000FC01918D828D981731F0828DE80FF11DBC
:10063000858D90E008958FEF9FEF0895FC01918DD7
:10064000228D892F90E0805C9F4F821B91098F73D0
:10065000992708958CE492E00E941E0321E0892BE3
:1006600009F420E0822F0895FC01A48DA80FB92F72
:10067000B11DA35ABF4F2C91848D90E001968F73CA
:100680009927848FA689B7892C93A089B1898C91E9
:10069000837080648C93938D848D981306C0028838
:1006A000F389E02D80818F7D80830895EF92FF9202
:1006B0000F931F93CF93DF93EC0181E0888F9B8D85
:1006C0008C8D98131AC0E889F989808185FF15C03F
:1006D0009FB7F894EE89FF896083E889F989808162
:1006E0008370806480839FBF81E090E0DF91CF9131
:1006F0001F910F91FF90EF900895F62E0B8D10E053
:100700000F5F1F4F0F731127E02E8C8D8E110CC0C1
:100710000FB607FCFACFE889F989808185FFF5CF0C
:10072000CE010E943403F1CFEB8DEC0FFD2FF11DB4
:10073000E35AFF4FF0829FB7F8940B8FEA89FB8949
:1007400080818062CFCFCF93DF93EC01888D8823A7
:10075000B9F0AA89BB89E889F9898C9185FD03C024
:10076000808186FD0DC00FB607FCF7CF8C9185FF09
:10077000F2CF808185FFEDCFCE010E943403E9CF17
:10078000DF91CF91089580E090E0892B29F00E94BD
:100790002A0381110E94000080E090E0892B49F03B
:1007A00080E090E0892B29F00E94000081110E94D6
:1007B000000080E090E0892B49F080E090E0892BF8
:1007C00029F00E94000081110E94000080E090E06A
:1007D000892B49F080E090E0892B29F00E940000ED
:1007E00081110C9400000895089590E080E0089530
:1007F000FC0120812EBD9B012150310941F0518126
:100800000DB407FEFDCF4EB55EBD4193F5CF6150EF
:100810007109860F971F0DB407FEFDCF2EB5FC01A1
:10082000208308950F931F93CF93DF93EC0188816A
:100830009981009759F02A813B812617370730F0BC
:1008400081E0DF91CF911F910F9108958B016F5F30
:100850007F4F0E94B30C009759F0998388831B83C4
:100860000A832C813D81232B59F7FC011082E8CFAC
:1008700080E0E7CFEF92FF920F931F93CF93DF9328
:100880006115710541F480E0DF91CF911F910F91C7
:10089000FF90EF90089541155105B1F07B01EC01F7
:1008A0000C811D81040F151FB8010E9412048823BA
:1008B00051F3288139818C819D81B701820F931F6B
:1008C0000E949D0D1D830C8381E0DECFCF93DF93CB
:1008D000EC0188819981009711F00E942A0C1982FD
:1008E00018821D821C821B821A82DF91CF9108958B
:1008F000EF92FF920F931F93CF93DF93EC017B0155
:100900008A01BA010E94120481110BC0CE010E941B
:100910006604CE01DF91CF911F910F91FF90EF9070
:1009200008951D830C83B701888199810E949D0DD4
:10093000F0CFFC0180819181009711F00C942A0C7A
:100940000895CF93DF93EC0160E08E810E94DE0179
:1009500061E08E810E94DE0160E08E810E94DE01F6
:100960008BE891E00197F1F7DF91CF910895CF9255
:10097000DF92EF92FF920F931F93CF93DF936C015F
:100980007C0187E0E80EF11CD0E0C0E0062F10E00B
:10099000B8010C2E02C0759567950A94E2F7617054
:1009A000F70181917F010E94DE012196C430D105BB
:1009B00079F7C601DF91CF911F910F91FF90EF90D2
:1009C000DF90CF900C94A104CF92DF92EF92FF9230
:1009D0000F931F93CF93DF93EC01F62E642F8C813E
:1009E0000E94DE018D818F3F19F060E00E94DE01E0
:1009F0000F2D10E08F8584FF25C06E0187E0C80EA3
:100A0000D11CF12CE12CB8010E2C02C07595679514
:100A10000A94E2F76170F60181916F010E94DE0194
:100A2000FFEFEF1AFF0A88E0E816F10461F7CE0144
:100A3000DF91CF911F910F91FF90EF90DF90CF90BA
:100A40000C94A104B80184E0759567958A95E1F747
:100A5000CE010E94B7046F2DCE01DF91CF911F917F
:100A60000F91FF90EF90DF90CF900C94B70440E08F
:100A7000682F89EE92E00C94E404CF93DF938230E8
:100A800029F49091F80298609093F8028093FC0208
:100A90001092FD0280E48093FE0280E18093FF02C9
:100AA00080E58093000361E08091ED020E946A027C
:100AB0008091EE028F3F19F061E00E946A0261E0CE
:100AC0008091EF020E946A02C9EED2E09E01295E87
:100AD00032408091F80284FD0BC084E090E02196C2
:100AE0002817390744F461E08E810E946A02EECF34
:100AF00088E090E0F4CF8BE39DE00197F1F760E0B0
:100B00008091ED020E94DE0160E08091EF020E9480
:100B1000DE018091EE028F3F19F060E00E94DE015D
:100B20008091F80284FD39C063E089EE92E00E9472
:100B3000B704CBE4D6E4CE010197F1F763E089EE88
:100B400092E00E94B7042197F1F763E089EE92E00A
:100B50000E94B70483E592E00197F1F762E089EE25
:100B600092E00E94B7048091F80280620E943705EB
:100B700084E08093F9028CE00E94370581E00E94B6
:100B800037058BE39FE10197F1F782E08093FA024A
:100B900086E0DF91CF910C94370580620E94370583
:100BA0008BE496E40197F1F78091F80280620E944D
:100BB000370583E592E00197F1F78091F8028062B2
:100BC0000E943705D0CF41E00E94E40481E090E02C
:100BD00008951F920F920FB60F9211242F933F93F7
:100BE0008F939F93AF93BF9380914402909145025E
:100BF000A0914602B09147023091430223E0230FB7
:100C00002D3758F50196A11DB11D20934302809305
:100C1000440290934502A0934602B093470280910C
:100C2000480290914902A0914A02B0914B0201966C
:100C3000A11DB11D8093480290934902A0934A02DE
:100C4000B0934B02BF91AF919F918F913F912F91A4
:100C50000F900FBE0F901F90189526E8230F029655
:100C6000A11DB11DD2CF1F920F920FB60F9211246A
:100C70000BB60F922F933F934F935F936F937F9396
:100C80008F939F93AF93BF93EF93FF938CE492E086
:100C90000E943403FF91EF91BF91AF919F918F918B
:100CA0007F916F915F914F913F912F910F900BBE6C
:100CB0000F900FBE0F901F9018951F920F920FB6B6
:100CC0000F9211240BB60F922F938F939F93EF9354
:100CD000FF93E0915C02F0915D028081E0916202FD
:100CE000F091630282FD1DC09081809165028F5F4B
:100CF0008F7320916602821741F0E0916502F0E067
:100D0000E45BFD4F958F80936502FF91EF919F917A
:100D10008F912F910F900BBE0F900FBE0F901F90D1
:100D200018958081F2CFECE4F2E01382128288EE13
:100D300093E0A0E0B0E084839583A683B7838AE044
:100D400092E09183808385EC90E09587848784ECA2
:100D500090E09787868780EC90E0918B808B81EC88
:100D600090E0938B828B82EC90E0958B848B86EC69
:100D700090E0978B868B118E128E138E148EE9EE77
:100D8000F2E0138212828CE192E0918380838CE006
:100D900084838FEF85838BE0868387E0878386E07B
:100DA000808783E0818782E0828713861486158698
:100DB0001686178681E00C943D05CF93DF93CDB75F
:100DC000DEB7A7970FB6F894DEBF0FBECDBF7894FD
:100DD00084B5826084BD84B5816084BD85B5826040
:100DE00085BD85B5816085BD80916E0081608093F1
:100DF0006E0010928100809181008260809381005A
:100E00008091810081608093810080918000816069
:100E1000809380008091B10084608093B1008091C4
:100E2000B00081608093B0008091910082608093D7
:100E30009100809191008160809391008091900059
:100E40008160809390008091A10082608093A100D6
:100E50008091A10081608093A1008091A0008160B9
:100E60008093A00080912101826080932101809174
:100E70002101816080932101809120018160809314
:100E8000200180917A00846080937A0080917A00BA
:100E9000826080937A0080917A00816080937A00EA
:100EA00080917A00806880937A001092C100FFB62A
:100EB000F89480913802811127C0E7EBF2E0849129
:100EC000EDEFF2E09491E82FF0E0EE0FFF1FE25B10
:100ED000FD4FA591B491EC91E92321F461E085E304
:100EE0000E94DE0161E085E30E946A028CB58061A8
:100EF0008CBD8CB580648CBD61E084E30E946A0285
:100F000061E083E30E946A02809138028F5F8093E0
:100F10003802FFBE60E085E30E946A028CB58064FF
:100F20008CBD8CB580688CBDE0915C02F0915D0257
:100F300082E08083E0915802F09159021082E091A2
:100F40005A02F0915B028FEC808310926402E09170
:100F50006002F091610286E08083E0915E02F09190
:100F60005F02808180618083E0915E02F0915F0288
:100F7000808188608083E0915E02F0915F028081D1
:100F800080688083E0915E02F0915F0280818F7DB6
:100F9000808382E00E943D05E1E08091FC028111A6
:100FA000E0E0E195F0E0E751FD4F848980680E9420
:100FB000370590E5D92ECC24C394CE0101967C014F
:100FC000DCBCCDBC62E070E081E492E00E94F803FA
:100FD00064E070E08DE392E00E94F80364E070E06A
:100FE00089E392E00E94F8030E949B022B013C01DE
:100FF00084E6882E912CA12CB12C0E949B026419AE
:10100000750986099709683E734081059105A8F323
:1010100091E0891A9108A108B10828EE420E23E058
:10102000521E611C711C81149104A104B10429F7A2
:10103000E1E08091FC028111E0E0E195F0E0E75110
:10104000FD4F848980680E9437058091410290910C
:1010500042021BA21AA21DA21CA21FA21EA24AE0AB
:10106000B7010E940009F70101900020E9F73197CC
:10107000AF014E195F09B701CE0182960E94780434
:101080001A8219821C821B821E821D8245E050E05A
:1010900064E272E0C7010E9478044EA15FA16AA1D8
:1010A0007BA1C7010E943A04811103C0C7010E94BD
:1010B000660441E050E06AE272E0C7010E943A042F
:1010C000811103C0C7010E9466044D815E81698160
:1010D0007A8189EE92E00E94C002C7010E949904C1
:1010E000CE0182960E949904E091FC02E23008F061
:1010F00062C0E150F0E0E751FD4F848980680E94B2
:1011000037056091390270913A0280913B029091CB
:101110003C021BA21AA21DA21CA21FA21EA2870192
:1011200022E044E00E94E208009709F446C0FC0176
:1011300001900020E9F73197AF01481B590BBC0122
:10114000CE0182960E9478041A8219821C821B8228
:101150001E821D8246E050E06CE272E0C7010E94F0
:1011600078044EA15FA16AA17BA1C7010E943A0445
:10117000811103C0C7010E94660444E050E063E3AC
:1011800072E0C7010E943A04811103C0C7010E94A6
:1011900066044D815E8169817A8189EE92E00E94C8
:1011A000C002C7010E949904CE0182960E94990450
:1011B0000E94C30305CFE1E09DCFCE0182960E943D
:1011C0006604C2CFEF920F931F93CF93DF93E80192
:1011D00034E047FD34E1042E000C550B57FF03C0EB
:1011E000519541955109E32E022F242FAE010E9403
:1011F0002509CE01DF91CF911F910F91EF900895B6
:10120000BB274A3031F4992322F4BDE290958195B1
:101210009F4F0C940C09BB27FB015527AA27880F69
:10122000991FAA1FA41710F0A41B83955051B9F75A
:10123000A05DAA3308F0A95DA193009779F7B111D9
:10124000B1931192CB010C94760B8F929F92AF9237
:10125000BF92CF92DF92EF92FF920F931F93CF93A3
:10126000DF9300D000D000D0CDB7DEB76A01F22EF8
:10127000B02E102FFBE3AF2EA01608F41BE31F5F68
:10128000012F27E0AE014F5F5F4F0E949E0ABC0115
:101290008981982F9970913009F44EC09BE2E1FC4E
:1012A00004C09E2D9170E0FC49C05E2D5071E82F66
:1012B000E87083FF55C084E0911101C083E0EF2DF9
:1012C000E81B8F1508F0E0E0D6018E2F20E25523B1
:1012D000C9F1992329F0D6019C93C60101966C01AE
:1012E00096012D5F3F4FE2FE33C08EE4D6018C9312
:1012F00091E411969C93119712968C93D9018E2F9D
:1013000090E281112AC0E20FF32FF11D10828EEFBF
:101310009FEF29960FB6F894DEBF0FBECDBFDF91C9
:10132000CF911F910F91FF90EF90DF90CF90BF90E2
:10133000AF909F908F9008959DE2B7CF90E2B5CF88
:101340002D9381508111FCCFCE0ED11CE0E0C1CF96
:101350008EE6D6018C9391E6CCCF9D938150D1CF70
:10136000482F447082FF3DC084E0911101C083E0AA
:101370008F1510F4EF2DE81BD6018E2F20E2552398
:1013800009F1992329F0D6019C93C60101966C01BD
:1013900096012D5F3F4FE2FE1BC089E4D6018C937E
:1013A0008EE411968C93119786E412968C93D90152
:1013B0008E2F90E2882309F4A6CF9D938150FACF17
:1013C0002D9381508111FCCFCE0ED11CE0E0D9CFFE
:1013D00089E6D6018C938EE611968C93119786E65A
:1013E000E4CF9B0177FF02C030E020E0A1E0B0E055
:1013F000911102C0B0E0A0E0F9013196AE0FBF1F1D
:101400008B2C912CBB2009F461C05401EFEFAE1A74
:10141000BE0AAA0DBB1DFA161B0619F014F04F2DBB
:101420004A1B511188C0E3FC59C07601A42FB0E2D9
:10143000A1114FC0C40ED11C992309F45BC040E038
:10144000D6011196F60190836D01552309F448C029
:10145000012F060F9A81582F507184FF03C09133DA
:1014600009F4015010160CF047C0093008F008E0EC
:10147000EEE2FE2E5B01A01AB108850191948194E1
:1014800091082F3F320729F4D601FC92F6013196DC
:101490006F016217730794F1021713077CF5DB01E4
:1014A000A21BB30BAA24A394B12CAC0EBD1EAA0D93
:1014B000BB1D11968C9121503109D601119628152A
:1014C0003905F4F0F60180836D01DBCFB12CA12C3E
:1014D000A0CFF701B1937F01A150AACF9111B0CF56
:1014E000D601942F50E302C05D9391509111FCCF2F
:1014F000C40ED11C40E0ACCF01E0BACF80E3DBCF1B
:101500006217730731F4963388F4953311F4552339
:1015100069F0F6018083FD01842F90E2811108C0FB
:10152000A40FB11D1C9290E080E0F3CE81E3F1CFD7
:1015300091938150F3CF911183CF8ACF283008F057
:1015400027E03327DA01990F311D87FD916000965E
:101550006105710539F432602E5F3D9330E32A95C1
:10156000E1F708959F3F30F080387105610509F07B
:101570003C5F3C5F3D93913008F08068911DDF93A4
:10158000CF931F930F93FF92EF92192F987F969509
:10159000E92F96959695E90FFF27E255FE4F99277B
:1015A0003327EE24FF24A701E70105900894079450
:1015B00028F4360FE71EF81E491F511D660F771FCE
:1015C000881F991F0694A1F70590079428F4E70E49
:1015D000F81E491F561FC11D770F881F991F661FD0
:1015E0000694A1F70590079428F4F80E491F561F9A
:1015F000C71FD11D880F991F661F771F0694A1F77B
:101600000590079420F4490F561FC71FD81F990F44
:10161000661F771F881F0694A9F78491109517708D
:1016200041F0D695C79557954795F794E7941A9545
:10163000C1F7E4E5F1E06894159015913591659155
:10164000959105907FE27395E118F10A430B560BD3
:10165000C90BD009C0F7E10CF11E431F561FC91F6B
:10166000D01D7EF4703311F48A95E6CFE8940150D2
:1016700030F0080F0AF40027021708F4202F2395F2
:10168000022F7A3328F079E37D932A95E9F710C089
:101690007D932A9589F606949795679537951795C2
:1016A0001794E118F10A430B560BC90BD00998F0B7
:1016B00023957E9173957A3308F070E37C93201321
:1016C000B8F77E9170617D9330F0839571E37D93DF
:1016D00070E32A95E1F71124EF90FF900F911F918D
:1016E000CF91DF91992787FD90950895DC01FC014A
:1016F000672F71917723E1F7329704C07C916D9346
:1017000070836291AE17BF07C8F30895EE0FFF1FF5
:10171000881F8BBF0790F691E02D19940F931F93AC
:10172000CF93DF938230910510F482E090E0E09156
:101730000303F091040330E020E0B0E0A0E0309734
:1017400099F42115310509F44AC0281B390B2430BE
:101750003105D8F58A819B816115710589F1FB01FD
:1017600093838283FE0111C04081518102811381E4
:1017700048175907E0F04817590799F4109761F096
:1017800012960C93129713961C933296CF01DF9109
:10179000CF911F910F9108950093030310930403B9
:1017A000F4CF2115310551F04217530738F0A90144
:1017B000DB019A01BD01DF01F801C1CFEF01F9CFD3
:1017C0009093040380930303CDCFFE01E20FF31F38
:1017D000819391932250310939832883D7CF209167
:1017E000010330910203232B41F420910202309136
:1017F00003023093020320930103209100023091F1
:1018000001022115310541F42DB73EB74091040284
:1018100050910502241B350BE0910103F091020366
:10182000E217F307A0F42E1B3F0B2817390778F0B7
:10183000AC014E5F5F4F2417350748F04E0F5F1F16
:101840005093020340930103819391939FCFF0E063
:10185000E0E09CCFCF93DF930097E9F0FC01329753
:1018600013821282A0910303B0910403ED0130E0D2
:1018700020E01097A1F420813181820F931F2091E5
:101880000103309102032817390709F061C0F09372
:101890000203E0930103DF91CF910895EA01CE178F
:1018A000DF07E8F54A815B819E0141155105B1F7DB
:1018B000E901FB83EA8349915991C40FD51FEC17C5
:1018C000FD0761F4808191810296840F951FE901E3
:1018D00099838883828193819B838A83F0E0E0E00F
:1018E00012968D919C9113970097B9F52D913C918B
:1018F0001197CD010296820F931F20910103309121
:1019000002032817390739F6309751F5109204036E
:1019100010920303B0930203A0930103BCCFD383BF
:10192000C28340815181840F951FC817D90761F484
:101930004E5F5F4F88819981480F591F51834083C3
:101940008A819B81938382832115310509F0B0CF71
:10195000F0930403E09303039ECFFD01DC01C0CFAD
:1019600013821282D7CF4F925F926F927F928F92A3
:101970009F92AF92BF92CF92DF92EF92FF920F931E
:101980001F93CF93DF938C01009799F4CB01DF91E4
:10199000CF911F910F91FF90EF90DF90CF90BF906C
:1019A000AF909F908F907F906F905F904F900C942E
:1019B0008E0BFC01E60FF71F9C0122503109E21744
:1019C000F30708F4AEC0D901CD91DC911197C61789
:1019D000D70720F1C530D10578F0CE0104978617DE
:1019E000970750F0C61BD70B2297C193D1936D93E5
:1019F0007C93CF010E942A0CC801DF91CF911F91E7
:101A00000F91FF90EF90DF90CF90BF90AF909F909D
:101A10008F907F906F905F904F9008955B01AC1A0C
:101A2000BD0A4C018C0E9D1EA0910303B0910403CE
:101A3000512C412CF12CE12C109731F580910103B0
:101A4000909102038815990509F05CC04616570667
:101A500008F058C08091000290910102009741F473
:101A60008DB79EB74091040250910502841B950BDF
:101A7000E817F90708F055C0F0930203E09301035B
:101A8000F90171836083B8CF8D919C911197129663
:101A90006C90129713967C901397A815B90559F579
:101AA0006C0142E0C40ED11CCA14DB0420F1AC016D
:101AB0004A195B09DA011296159780F062827382E7
:101AC00051834083D9016D937C93E114F10471F04B
:101AD000D7011396FC93EE9312978ECF22968C0F1C
:101AE0009D1FF90191838083F301EFCFF0930403ED
:101AF000E093030381CF4816590608F42C017D01B9
:101B0000D3019ACFCB010E948E0B7C01009749F044
:101B1000AE01B8010E94940DC8010E942A0C8701F1
:101B20006BCF10E000E068CFFB01DC0102C0019048
:101B30000D9241505040D8F70895FB01DC0101900F
:0C1B40000D920020E1F70895F894FFCF0B
:101B4C00000005038000000000005603C002ED02F7
:101B5C00A3031E03FC02100300000000E305C002F7
:101B6C00F503F403446973743A00200053706565FF
:081B7C00643A004B6D2F680074
:00000001FF
